:020000040800F2
:10000000680600205D01000865010008670100081E
:10001000690100086B0100086D0100080000000084
:100020000000000000000000000000006F01000858
:10003000710100080000000073010008750100084C
:1000400077010008790100087B010008000000002A
:10005000000000007D0100087F0100088101000808
:1000600083010008000000008501000887010008E6
:1000700089010008000000008B0100088D010008C4
:100080008F010008910100080000000093010008A2
:1000900095010008000000000000000000000000C2
:1000A00000000000000000000000000097010008B0
:1000B000990100089B0100089D0100089F010008AC
:1000C00000F002F800F03AF80AA090E8000C824430
:1000D0008344AAF10107DA4501D100F02FF8AFF20D
:1000E000090EBAE80F0013F0010F18BFFB1A43F016
:1000F000010318472804000048040000103A24BFF8
:1001000078C878C1FAD8520724BF30C830C144BF7C
:1001100004680C60704700000023002400250026BE
:10012000103A28BF78C1FBD8520728BF30C148BF5A
:100130000B6070471FB51FBD10B510BD00F045F82E
:100140001146FFF7F7FF00F0A9F900F063F803B4D8
:10015000FFF7F2FF03BC00F06BF800001348804784
:1001600013480047FEE7FEE7FEE7FEE7FEE7FEE78F
:10017000FEE7FEE7FEE7FEE7FEE7FEE7FEE7FEE757
:10018000FEE7FEE7FEE7FEE7FEE7FEE7FEE7FEE747
:10019000FEE7FEE7FEE7FEE7FEE7FEE7FEE7FEE737
:1001A00004480549054A064B70470000FD03000856
:1001B000C1000008680000206806002068020020D6
:1001C00068020020704770477047754600F02CF8B1
:1001D000AE4605006946534620F00700854618B034
:1001E00020B5FFF7DDFFBDE820404FF000064FF0DF
:1001F00000074FF000084FF0000BAC46ACE8C00918
:10020000ACE8C009ACE8C009ACE8C00921F00701BE
:100210008D46704710B50446AFF300802046BDE818
:100220001040FFF794BF000000487047080000200E
:1002300001491820ABBEFEE726000200704700000F
:100240002DE9F04F86B08B46D0F804908168039179
:10025000C168049101690591D0F814A0D0F8188004
:100260000090D0F81CE0BBF80070002F62D0012293
:1002700003234FF0011400254FF0000C09E000BFEC
:1002800052009B0064000CF1010C7F0805F102058F
:1002900050D0F807F4D09BF8026029EA020006FA71
:1002A0000CF646EA00099BF808000399A84021EAE9
:1002B0000306304303909BF80A00049900FA0CF0FF
:1002C00021EA02063043CDF808E09BF803E00490F1
:1002D0000598CDF804809BF804800CF11006514677
:1002E00020EA040A0EFA06F040EA0A0E08FA0CF0B8
:1002F00040EA0E0005909BF8050021EA040EB0408C
:100300009BF8066040EA0E0006FA0CF640EA060A80
:100310009BF809000199A84021EA030640EA060873
:100320009BF80700029900FA0CF021EA020640EA65
:10033000060EA5E70020009EC4F20C004FF0FF322D
:10034000864208BF6FF01F0209EA020373604FF094
:10035000FF3304BF4FF60043CFF6FF73039F4FF008
:10036000FF311F40B760049F864207EA0207F7602B
:1003700008BF6FF01F110598084030610AEA0100BC
:10038000706108EA0300B0610EEA0200F06106B095
:10039000BDE8F08F0068084018BF012070470000DA
:1003A0000022C4F20C029042026808BF41F01F0113
:1003B00022EA010101607047026811430022C4F281
:1003C0000C02904208BF21F01F010160704700003D
:1003D0004FF6FF7101800021C0F80210C0F806102E
:1003E00081727047002940F21C01C4F202010A68C0
:1003F0000CBF22EA000010430860704740F2000181
:100400004EF608520C20C0F60001CEF20002C4F2F3
:1004100002001160102101610021016040F8081CF8
:1004200040F8041C41608160C16041618161C1612B
:100430000162016801680268C90740F60011C0F254
:100440003D0104BF41F20021C0F27A01520705D5F7
:1004500050F8082CC2F30322013251430268C2F360
:10046000012252B1022A0DD0012A0ED10068C0F338
:1004700003100130B1FBF0F009E041F20020C0F2BE
:100480007A0004E04FF4004001E049F6404040F2B9
:100490000001C2F2000108607047000084B048F219
:1004A00000044FF400000121C4F20B040126FFF701
:1004B00099FF01AD2846FFF78BFF0420ADF804003B
:1004C00040F20310ADF80D00204629468DF8066075
:1004D000FFF7B6FE48F2A06544F24026C0F20105DF
:1004E000C0F20F0620460421FFF754FF18B920463A
:1004F0000421FFF761FF2846013800BFFCD12046E8
:100500000421FFF747FF012803D120460421FFF70C
:1005100047FF3046013800BFFCD1E3E73C05000847
:100520000000002004000000FC0000084005000856
:1005300008000020600600001801000800127A0080
:040000050800015D91
:00000001FF
