:020000040800F2
:10000000806200205D0100086501000867010008AA
:10001000690100086B0100086D0100080000000084
:100020000000000000000000000000006F01000858
:10003000710100080000000073010008750100084C
:1000400077010008770100081D1400080000000077
:100050000000000077010008770100087701000820
:100060007701000800000000770100087701000810
:100070007701000800000000770100087701000800
:1000800077010008D5020008000000007701000891
:1000900077010008000000000000000000000000E0
:1000A00000000000000000000000000077010008D0
:1000B0007701000877010008770100087701000840
:1000C00000F002F800F03AF80AA090E8000C824430
:1000D0008344AAF10107DA4501D100F02FF8AFF20D
:1000E000090EBAE80F0013F0010F18BFFB1A43F016
:1000F000010318470016000020160000103A24BF24
:1001000078C878C1FAD8520724BF30C830C144BF7C
:1001100004680C60704700000023002400250026BE
:10012000103A28BF78C1FBD8520728BF30C148BF5A
:100130000B6070471FB51FBD10B510BD00F031F842
:100140001146FFF7F7FF01F00DFA00F04FF803B486
:10015000FFF7F2FF03BC00F057F8000009488047A2
:1001600009480047FEE7FEE7FEE7FEE7FEE7FEE799
:10017000FEE7FEE7FEE7FEE704480549054A064BB1
:100180007047000091050008C100000880020020AF
:10019000806200208022002080220020704770476B
:1001A0007047754600F02CF8AE4605006946534688
:1001B00020F00700854618B020B5FFF7DDFFBDE849
:1001C00020404FF000064FF000074FF000084FF0BE
:1001D000000BAC46ACE8C009ACE8C009ACE8C0090B
:1001E000ACE8C00921F007018D46704710B5044600
:1001F000AFF300802046BDE81040FFF7A8BF000025
:10020000004870476000002001491820ABBEFEE79F
:10021000260002007047000048F20001C4F2080105
:100220000A68002822F0010218BF01320A607047F4
:1002300048F2200CC4F2080CDCF80030002943EA34
:10024000800208BF23EA8002CCF80020704700003B
:100250002DE9F04148F20001C4F208010A680323C5
:10026000CFF2FF1302EA030E03784278B0F802C01F
:10027000734404791A4485896244468A02EB041265
:10028000C78A2A443244D0F818803A444B68C78958
:10029000067D0F61078A23F400338F60806802EBCC
:1002A000486203EB464388620A604B60BDE8F08118
:1002B00048F20000C4F20800002101604160816042
:1002C0000161826901628162C1604161C26941620A
:1002D000C162704780B582B048F21800C4F20800CD
:1002E00001688DF8061000680221C0F303208DF824
:1002F00007000DF1060000F0D7FA02B080BD000043
:10030000F0B5D0E90231D0E904241944D0E900CE97
:1003100048F200051144C4F20805214480692E68A2
:100320004FF6FF776144C0F6006701EB0E713E4067
:1003300001EB405030442860F0BD00000021C0E9CE
:100340000011C0E90211C0E9041181617047000089
:100350000021C182816101600171C0E90211016166
:10036000017570470021C1600161416001608160D9
:1003700041618161C16170472DE9F04F86B04668E7
:10038000D0F80890C2688B460592016903914169D3
:100390000491D0F818A00090D0F81CE0BBF80070D1
:1003A000002F5ED0012203234FF0011400254FF0EF
:1003B000000C08E052009B0064000CF1010C7F0867
:1003C00005F102054DD0F807F4D026EA02009BF8AB
:1003D000026029EA030906FA0CF6304302909BF802
:1003E0000800059EA84040EA09019BF80A009643D0
:1003F00000FA0CF03043CDF804E09BF803E00590E0
:1004000003989BF804800CF1100620EA04090EFA08
:1004100006F040EA090E08FA0CF040EA0E000390DC
:100420009BF8050089460499B0409BF8066021EAD4
:10043000040E40EA0E0006FA0CF6304304909BF8D6
:1004400009002AEA0306A84040EA060A9BF80700CA
:10045000019900FA0CF021EA020640EA060E029E1B
:10046000A8E700984660C0F808900599C160039914
:10047000016104994161C0F818A0C0F81CE006B001
:10048000BDE8F08F8821C4F2402108607047000069
:100490000422C4F20202936823F00303184390601D
:1004A00013688C2023F4706343EA0121C4F24020D6
:1004B000116050F8041C002908BF70470121016039
:1004C000002101607047000081B00020C4F20200EA
:1004D000002100910168009A01320092009A520AAC
:1004E000022A02D811F00201F4D00068C0F34000E3
:1004F00001B0704740F28811C4F240210860704793
:100500000C21C4F202010A6822F0F00242EA001053
:10051000086070470C21C4F202010A6822F440729C
:1005200010430860704700000821C4F202010A6805
:10053000012822F003020A6003D0022818BF704786
:1005400003200A68104308607047000081B0002053
:10055000C4F20200002100910168009A0132009269
:10056000009A520A022A02D811F00401F4D000685D
:10057000C0F3800001B07047002940F21C01C4F2B2
:1005800002010A680CBF22EA0000104308607047AD
:100590000C20C4F20200102101610021016040F82A
:1005A000081C40F8041C41608160C16041618161A8
:1005B000C161016201680268890742F20041C0F22C
:1005C000F40103685CBF41F20021C0F27A0102F03D
:1005D00001025B0721FA02F105D550F8082CC2F39D
:1005E0000322013251430268C2F3012252B1022AAE
:1005F0000DD0012A0ED10068C0F303100130B1FB09
:10060000F0F009E041F20020C0F27A0004E04FF47B
:10061000004001E049F6404040F20001C2F2000112
:10062000086070470421C4F20201CA680378407868
:100630001A4342F48272CA600A6842EA001040F02B
:100640000100086051F8040CC007FBD0704700009F
:10065000B0B540F26E14C2F200046078E588811EE5
:1006600020294FF0010000F25080DFE801F0112056
:100670004E4E4E4E4E4E4E4E4E4E4E4E4E4E4E4E9A
:100680004E4E4E4E4E4E4E4E4E4E4E4E25344D001C
:10069000022D37D140F2401140F24173C2F2000105
:1006A000C0F600030020022200F02AFE2DE0022006
:1006B000022D08BF012028E0072D23D140F2401170
:1006C00040F24173C2F20001C0F60003002007228D
:1006D00000F016FE19E0072D14D1A08840F2401159
:1006E000C2F2000100F072F878B940F2401140F611
:1006F0005113C2F20001C0F600030020072200F0EF
:10070000DFFD02E0022000E00020002808BF002DED
:1007100000D0B0BD94F90000B0F1FF3F07DD00202C
:10072000002100220023BDE8B04000F0C9BD002038
:10073000002100220023BDE8B04000F0E1BD000030
:1007400010B540F26E12C2F2000253780446022B3A
:1007500005D0202B05D1908800F0C0F802E00120E0
:1007600000E00220002818BF10BD20460021002212
:10077000002300F0A5FD10BD01060FD001200021CF
:100780000023002B08BF704740F65113C0F600034A
:100790000020944538BF624600F092BD000A01284F
:1007A0000AD00228EAD140F20401002001234FF0D0
:1007B000430CC2F20001E4E740F2470100200123AC
:1007C0004FF0120CC2F20001DBE7000000281CBF52
:1007D0000220704740F24810C2F2000005C8C1E98B
:1007E000000200207047000040F26013C2F20003D4
:1007F000C3E9000100201881B2FA82F040094102E9
:10080000002059817047000080B50846114600F06D
:1008100021F8002840F26010C2F200001CBF4FF423
:1008200000714181418900291CBF002080BDD0E9B1
:10083000001240F60903C0F600030320BDE8804023
:1008400000F05EBD40F26011C2F200010022002003
:100850000A8170470020704710B500F0EFF8044699
:10086000A0B901200521002200F062FA0220052132
:10087000002200F05DFA03200121002200F058FA66
:1008800040F26010C2F20000418909B1204610BD5B
:10089000D0E9001240F60903C0F600030320BDE8CA
:1008A000104000F02DBD000080B540F2601CC2F287
:1008B000000CBCF808300BB1184680BD0A46014652
:1008C0004FF4007040F64503ACF80800C0F6000392
:1008D000012000F0F5FC0346184680BD00281CBF2F
:1008E00002207047D1E9000140F24812C2F2000232
:1008F000C2E9000100207047F0B581B002284FF036
:10090000010608BF002920D140F29410D4B2C2F2EF
:1009100000002C2104FB010702257A7EC0F20805A5
:100920000AB1012205E0BA7E002A0CBF4FF400256F
:1009300001226143425400261F207E7000F00CFE0D
:10094000204629463E7600F0D5FD304601B0F0BD88
:1009500070B5044640F29410C2F200002C2104FB52
:10096000010561430122002642521F202E62C5E983
:100970000166C5E903666A7600F0EEFD0221C0F269
:10098000080120462E7600F0B5FD002070BD000065
:10099000B0B50C46FFF746FE00F076FD4FF4803010
:1009A00000F08AFD206800F087FDD4E901010843CA
:1009B00040F0010000F092FD40F29415C2F20005F3
:1009C0000024002005212C80C5E90144C5E9034429
:1009D0006C612C76C5E90744C5E9094400F08AFD3D
:1009E00040F26E10C2F20000C5E9044040F69520C6
:1009F000C0F6000068620120A87628801F20C5E9A3
:100A0000024400F0A9FD0221C0F2080100202C766A
:100A100000F070FD40F28411C2F2000100200C7061
:100A20008C60B0BD80B50C2000F046FD40F2841112
:100A3000C2F20001022200200A7080BD40F284113F
:100A4000C2F20001032200200A70704770B502282C
:100A50004FF0010408BF002901D0204670BD1006E8
:100A600016D040F29410C2F20000D5B22C2105FB42
:100A70000106694340F2051242521F2000F06CFD4E
:100A8000002428460A21347600F034FD204670BD4B
:100A9000012070BD2DE9F0470D46097801F0600294
:100AA000402A35D0202A36D0002A38D14BB282468F
:100AB00003F01F00032884BF0220BDE8F0876E7892
:100AC000B5F806800C2E3CD86988AA884FF000093A
:100AD0000127DFE806F00726363A364A55B35C723E
:100AE0007F8AB300B3F1FF3F00F3868040F28411A8
:100AF000C2F200010978042905D101287CD002281E
:100B000001D1032A78D8022880F0E3800020E9E0B0
:100B10000120BDE8F087BDE8F047FFF799BD022747
:100B2000B4E040F28413C2F200031B78042B05D119
:100B3000012861D0022801D1032A5DD8FFF7DCFE2D
:100B400023E04FF00009022778E040F28413C2F25C
:100B500000031B78042B05D101284DD0022801D1B8
:100B6000032A49D8FFF772FF0FE040F28410C2F267
:100B7000000040F60D598160C0F6000900275DE0D5
:100B8000084611464246FFF7F7FD074654E040F29B
:100B90008410C2F20000007840F25C11043818BFE3
:100BA0000120C2F2000140F651130870C0F60003A4
:100BB0005046012200F084FB3DE0B1B34F1E18BF48
:100BC0000127012938D140F28410C2F2000005212A
:100BD000017031E040F28410C2F2000000784FF062
:100BE000000904280CD1012728E040F28410C2F249
:100BF00000000078042813D14FF0000901271DE000
:100C000040F25C1140F65113C2F20001C0F600033D
:100C10005046012281F8009000F052FB00270DE0C1
:100C200052EA010718BF012706E040F28410C2F221
:100C300000000421017000274FF0000957EA080066
:100C400024D195F90000B0F1FF3F22DD40F2941469
:100C5000C2F200042C200AFB00410AFB00F5887E4A
:100C600000274022C1E90177C1E90372C1F81C9055
:100C700000284FF0020150464FF0020608BF012144
:100C800000F060FB38466655BDE8F0873846BDE8A1
:100C9000F08740F29410C2F200002C210AFB0104FC
:100CA0000AFB01F10122002742521F20C4E901770B
:100CB000C4E90377C4F82090627600F04DFC02216D
:100CC000C0F208015046277600F014FC3846BDE813
:100CD000F0870CD140F29410C2F200002C2102FBEC
:100CE0000100407840F25C11C2F20001087040F24D
:100CF0005C1140F65113C2F200010027C0F6000358
:100D0000504602224F7000F0DBFA95E710B540F232
:100D10008414C2F20004A06800F0DAFBA068042189
:100D200000284FF0000008BF0321217010BD000013
:100D300010B540F2941CC2F2000C4FF02C0E00FBD8
:100D40000EC300FB0EFE0024C3E90144C3E90344C3
:100D50005C61C3E90744C3E909422CF80E401C76E4
:100D600000F0C8FB002010BD2DE9F04F8FB00D46FC
:100D7000044600F03DFB0790204600F041FB00F0E8
:100D80000306204600F01CFB40F29411C2F2000161
:100D90002C2204FB021AE90706901CBF01208AF8E6
:100DA000180006980AF1140900F002070AF1010080
:100DB0000C900AF1190004900AF11A000A900AF145
:100DC00018000E900AF1240002900AF12000019010
:100DD00007980AF1040800F0400100F00F000391A9
:100DE0000AF11C0108900AF1280000254FF0000BC1
:100DF000009105900B9709960FE09AF800000B9F61
:100E0000002800F08A814FF0000B00BFBBF1000FFB
:100E10004FF0010B284600F04E829AF8000005289A
:100E2000F4D8DFE810F0480206001F003D0075000E
:100E3000A900002FEAD10E9800780028E6D0002EF5
:100E400000F0CC81022E40F0D2810499087800286D
:100E500000F0C38103208AF80000002008704FF0E2
:100E6000010BD3E7002F40F0A2800E9800780028F5
:100E700000F09D80012E40F09A800398002800F039
:100E80009680D8F80C10D8E9012008449042C8F8A0
:100E9000080080F021812046012100F053FAB5E7D7
:100EA000002FB3D10E9800780028AFD020460D95C2
:100EB00000F096FA054688B16F424FF0FF3600BF4A
:100EC000204600F085FAD8F80010D8F80820114420
:100ED00031440136BA1901324870F1D1204601215E
:100EE00000F016FBD8E9011042198A42C8F8082020
:100EF00080F0D1801F2000F02FFB0E984FF0000BE8
:100F000080F800B02046022100F0F4FA099EBFE00C
:100F10000E98007800283FF476AF204600F060FA83
:100F2000082864D1002500BF204600F051FAD9F806
:100F3000001048550135082DF6D12046012100F05A
:100F4000E7FA0298D9F80010026820469047054653
:100F5000002800F0DD800A984FF0000B00783E4634
:100F600000282F4600F01B810C98002101700520FD
:100F70000A258AF8000013E1002F7FF447AF0C9890
:100F80000078012846D1002C3FF440AF0C98012195
:100F9000017005208AF800001F2000F0DDFA0E988D
:100FA0000021017020460A2100F0A4FA2EE70898DB
:100FB00000283FF42BAF0598076800208AF800004E
:100FC0002FB10799069B20463246B84705466DB3B8
:100FD0000A980B9F00780D95002800F0B6800C98B9
:100FE0000026067005200A258AF80000AFE020469A
:100FF000012100F08DFA0A984FF0000B00780028CC
:1010000000F096800C980021017005200A258AF8CE
:1010100000008EE00498374600780D95002800F017
:10102000A28002250120C0F20805A7E09AF800007E
:101030000B9F00287FF4EAAE02208AF800002046C9
:1010400001210D95374600F073FAD8F80C20D8E945
:10105000011002448A4238BF114688420DD24D42E7
:10106000461E00BFD8F8000030444178204600F00A
:1010700057FA0136A8190130F4D11F2000F06CFA9C
:101080000E98002101702046022100F033FA3E46FE
:101090000B9F0D9DBAE601980D9D036800208AF80C
:1010A000000023B1D8F80010204698470546099E55
:1010B000002D3FF4A2AE0A980B9F00784FF0000B72
:1010C00000280D9500F0AD800C98002101700520DE
:1010D0000A258AF80000A5E00098036800208AF835
:1010E000000023B1D8F80010204698470546002D8F
:1010F00064D00A98374600780D95002800F0BD802E
:101100000C980026067005208AF800000A253AE0AF
:101110009AF8000004287FF476AE04982F460078F1
:10112000002800F08B8002250120C0F2080590E025
:1011300000251F2000F010FA0E98294680F800B014
:10114000204600F0D7F9012560E6002500261F2083
:1011500000F002FA0E9829460670204600F0CAF9FF
:10116000099E0D9D52E60A9802250078C0F20805F6
:10117000002818BF012008BF4FF400258AF800009E
:101180000C98002606701F2000F0E6F90E982946FC
:101190000670204600F0AEF90D9D3E466BE000253E
:1011A0001F2000F0D9F90E98294680F800B020469B
:1011B00000F0A0F93D463746099E27E69AF8000060
:1011C00000287FF423AE04982F460078002857D0DB
:1011D00002250120C0F208055DE046B90A980078B2
:1011E00028B104208AF800004FF0010B0EE60A989F
:1011F0003746007838B10C980026067005200A257D
:101200008AF8000001E0002500261F2000F0A4F964
:101210000E9829460670204600F06CF901253E46DE
:1012200029E000251F2000F097F90E98294680F844
:1012300000B0204600F05EF90D9DE7E50A98022512
:101240000078C0F20805002818BF012008BF4FF43D
:1012500000258AF800000C984FF0000B80F800B0D1
:101260001F2000F079F90E98294680F800B020463A
:1012700000F040F93D460B9FC8E50025002682E7B7
:101280000A9802250078C0F20805002818BF01203E
:1012900008BF4FF400258AF800000C98002606705D
:1012A0001F2000F059F90E9829460670204600F0DC
:1012B00021F9099EDEE780B20FB0BDE8F08F000093
:1012C0002DE9F04140F29418C2F200082C2400FBF2
:1012D00004854FF0400CAE7E05F1040E00278EE829
:1012E000861002214443EB610225002E08BF012134
:1012F00000F028F8002008F80450BDE8F081000054
:1013000070B540F2941C0446C2F2000C2C2004FB81
:1013100000C5604305F1040E00268EE84600012159
:101320002CF800101F202E612B62697600F014F952
:101330000221C0F2080120462E7600F0DBF80020E2
:1013400070BD00002DE9F0410D460121044600F07A
:10135000EFF8022D05D0012D07D1204600F0A2F8AC
:1013600003E02046042100F0C5F840F29410C2F2D8
:1013700000002C2104FB0108D8F81020D8E9021045
:1013800002448A4238BF114688420DD208F1040651
:101390004F42451E306828444178204600F0C0F88E
:1013A000013578190130F5D11F2000F0D5F8002261
:1013B0002046022188F81820BDE8F04100F09AB8D4
:1013C00040F200110001C4F201010858704700000A
:1013D00040F28011C001C4F20101085870470000BA
:1013E00040F28C11C001C4F201010858704700009E
:1013F00040F204110001C4F20101085870470000D6
:1014000040F208110001C4F20101085870470000C1
:1014100040F24810C4F2010000687047F0B581B096
:101420004EF20015CEF20005042040F29016C5F8E9
:101430008000C2F20006306808B101B0F0BD0120A2
:101440003060FFF7E5FF044640070AD540F28410FC
:10145000C2F200000321017000218160002000F031
:1014600037F80027F8B22146FFF77EFC0137042F3A
:10147000F8D124F0010000F06FF800203060042063
:10148000286001B0F0BD000040F28030C4F20100DD
:10149000016841F002010160016821F00201016070
:1014A0007047000040F200110001C4F201010A5827
:1014B00082F004020A50704740F28031C4F2010108
:1014C0000A6883B21A4322EA10400860704700009D
:1014D00040F25011C4F201010860704740F240111F
:1014E000C4F201010A6883B21A4322EA104008607C
:1014F0007047000040F2001C0001C4F2010C5CF8CF
:1015000000308AB21A4322EA11414CF800107047A9
:1015100040F29012C001C4F2010211507047000065
:1015200040F2C012C001C4F2010211507047000025
:1015300040F2D012C001C4F2010211507047000005
:1015400040F24C11C4F201010A6883B21A4322EA44
:10155000104008607047000040F24811C4F20101D9
:101560000860704740F2481048F28041C2F2000023
:10157000C0F21E01016000240821848081711020C6
:101580004EF2001740F20008C0F202000121CEF234
:101590000007C4F20C08FEF7EFFF4FF0C070012106
:1015A000FEF7EAFF4EF6085040F20051CEF200007E
:1015B000C0F2FA5141604FF0006101604FF0FF301E
:1015C000C7F88001C7F880004FF40030386040460B
:1015D000FEF7C8FE40F25015C2F200050220288036
:1015E00040462946AC70AC72FEF7C6FEFEF760FEC0
:1015F00040F24426C2F200063046FEF79FFE304617
:10160000FEF77EFE40F26026C2F200063046FEF78C
:101610009FFE4FF4006030604FF40040F0820F20D6
:10162000B06130463471B46074823475FEF710FED8
:1016300004200121FEF7FCFD0120FEF7EDFD40F244
:10164000C000C2F2000001210122FFF7CDF8012005
:10165000FEF76AFFFEF77AFF012847D10220072133
:10166000FEF716FF01200126FEF70CFFFEF72CFF08
:1016700001283DD10020FEF743FF0120FEF73AFF8D
:101680004FF48070FEF746FF042001210424FEF78A
:1016900073FF40F26C10C2F2000040F202210180A0
:1016A00040F27811C2F2000110222023C1E9002388
:1016B0008A60FFF76DF91F20FFF742FFFFF7B2F9CD
:1016C0003C60FFF7C9F84FF400000121FEF754FF1A
:1016D00040F20310A5F80900A8F5004029462C8027
:1016E000AE70FEF749FE00BFFEE700BFFEE700BF99
:1016F000FEE7000014170008000000205C00000056
:10170000FC00000870170008600000202062000044
:101710001801000800127A0009024300020100804B
:101720003209040000010202010005240010010535
:101730002401000104240206052406000107058295
:101740000340000209040100020A000000070581AD
:1017500002400000070503024000001201100102D0
:10176000000040830425F10000000000010000009B
:040000050800015D91
:00000001FF
