:020000040800F2
:10000000B063002009020008110200081302000872
:10001000150200081702000819020008000000007D
:100020000000000000000000000000001B020008AB
:100030001D020008000000001F0200082102000845
:1000400023020008230200083926000800000000EF
:100050000000000023020008230200082302000819
:100060002302000800000000230200082302000809
:1000700023020008000000002302000823020008F9
:1000800023020008B9140008000000002302000841
:100090002302000800000000000000000000000033
:1000A0000000000000000000000000002302000823
:1000B000230200082302000823020008230200088C
:1000C00000F002F800F090F80AA090E8000C8244DA
:1000D0008344AAF10107DA4501D100F085F8AFF2B7
:1000E000090EBAE80F0013F0010F18BFFB1A43F016
:1000F000010318476832000088320000103A24BF1C
:1001000078C878C1FAD8520724BF30C830C144BF7C
:1001100004680C60704700000023002400250026BE
:10012000103A28BF78C1FBD8520728BF30C148BF5A
:100130000B6070476E2900F09B81702900F0DD8212
:10014000662903F08980652903F08680672903F01A
:100150008380612903F0828003681B0A28BF41F075
:100160008001692900F04881642900F045817529E2
:1001700000F042816F2900F06B82782900F0A9829B
:10018000E92900F00582E42900F00282F52900F057
:10019000FF81EF2900F06882F82900F0A882036847
:1001A000DB0928BF41F08001632900F0A98773298A
:1001B00000F0AE87E32900F0B987F32900F0BE878D
:1001C000002070471FB501F00FF804000020002147
:1001D00003F02CF8401C60600020002103F010F8B0
:1001E000E0601FBD10B510BD00F0D0FF1146FFF755
:1001F000E9FF02F0E1FA01F0ADF803B4FFF7F2FF16
:1002000003BC01F0B5F800000948804709480047E1
:10021000FEE7FEE7FEE7FEE7FEE7FEE7FEE7FEE7B6
:10022000FEE7FEE704480549054A064B7047000013
:10023000AD170008C1000008B0030020B063002023
:10024000B0230020B02300201CB50C46064B7B4495
:1002500069460090204600F024F9044600206946D3
:1002600000F032F920461CBD7702000010B5431C97
:1002700002E010F8011B71B18107FAD14FF0013291
:1002800002C88C1A8C4314EAC211F9D0C01A0A06AB
:1002900003D0C01E10BDC01A10BD0A0401D0801EBC
:1002A00010BD0902FCD0401E10BD00004FF0013C03
:1002B00050F8042B51F8043B9A4221D1A2EB0C03D5
:1002C000934313EACC1317D150F8042B51F8043B95
:1002D0009A4215D1A2EB0C03934313EACC130BD132
:1002E00050F8042B51F8043B9A4209D1A2EB0C03BD
:1002F000934313EACC13DBD04FF00000704700BFEC
:10030000D01A01BAB1FA81F101F0180122FA01F014
:10031000CB40DBB2C0B2C01AC1F120012CFA01F30C
:10032000D11A914311EAC311E6D170477047704763
:10033000704770B5044685690068C10601D530264E
:1003400000E02026C00707D070BDD4E90121304667
:100350009047206A401C20626D1EF6D570BD70B5B6
:10036000044685690078C00707D170BDD4E9012132
:1003700020209047206A401C20626D1EF6D570BD7B
:1003800009684A0501D540B27047C905FCD500B2DD
:10039000704709684A0501D5C0B27047C905FCD548
:1003A00080B2704770B50C460546012A05D0287802
:1003B000800600D5EA69002302E0012305E05B1C0A
:1003C000934202D2E05C0028F9D1A869E618C01A6D
:1003D000A861286A184428622846FFF7AAFF04E0AB
:1003E000D5E9012114F8010B9047B442F8D328460F
:1003F000FFF7B5FF70BD00002DE9F041064600246F
:1004000010687529314616A510D0FFF7B9FF0028EE
:1004100002DA404213A507E031688A0701D512A528
:1004200002E0490704D511A5012401E0FFF7B1FF5F
:1004300000210A2206F1240709E0B0FBF2FCB0FB20
:10044000F2F302FB1C00303078541846491C002897
:10045000F3D123462A463046BDE8F04100F061BAA8
:10046000000000002D0000002B0000002000000014
:1004700011680268006A530501D508700AE0D305C7
:1004800001D5088006E0130603D5C217C1E90002B2
:1004900000E008600120704701694A1C0261087889
:1004A000704700B58FB0CDE90131002105910549B4
:1004B0007944CDE903101146684600F029F90FB0E0
:1004C00000BD0000E5FFFFFF0A6802F8010B0A60AB
:1004D000704700002DE9FF5F15468A460446DFF8A5
:1004E000AC80F8440027D8E900103E46CDE9001062
:1004F00010E03AF816106A4602A800F023FE411CEC
:1005000007D02178890603D5E269391891420DD8C0
:100510000744761C2078800602D5E069B84205DDE4
:10052000AE42E6DB3AF816000028E2D1A069C01B13
:10053000A0612046FFF7FDFED8E90010CDE90010CC
:10054000002017E03AF818106A4602A800F0FAFDF9
:10055000B0F1FF3F81460BD000250DF1080B05E0FF
:10056000D4E901211BF8050090476D1C4D45F7D3D8
:1005700008F10100B0428046E4DB206A3844206282
:100580002046FFF7ECFEBDE8FF9F00007A2D00003B
:100590002DE9F0418046D21D22F007020025D2E964
:1005A0000002F52915A614D0011E72F1000106DA29
:1005B0000023D0EB030063EB020211A608E0D8F899
:1005C00000108B0701D50FA602E0490701D50EA642
:1005D00001251146002408F1240704E000F05CF92D
:1005E00030323A55641C50EA0102F7D12B463246AC
:1005F00021464046BDE8F04100F093B900000000FC
:100600002D0000002B0000002000000030B400216D
:1006100000F1240408E002F00705D208303542EA70
:100620004372DB086554491C52EA0305F3D10468A0
:10063000002310A2250708D504F020040C4304D0A1
:10064000C46901230CA2641EC46130BC00F069B906
:1006500010B5044621461068FFF79BFE024620466F
:10066000BDE810400023D1E7D21D22F00701D1E9F7
:100670000023CBE70000000030000000F0B40D467E
:100680000188090502D5214C7C4402E01F4C7C44C2
:100690000E34002100F1240608E002F00F071209D1
:1006A000E75D42EA03721B097754491C52EA0307CB
:1006B000F3D102780023120704D5702D06D009B1BA
:1006C000022311342246F0BC00F02BB90123103470
:1006D000F8E770B504460D4621461068FFF759FE4D
:1006E000024629462046BDE870400023C6E7D21DD9
:1006F00022F00703D3E90023C0E70368126843F040
:10070000200303600823C3610023B7E7DC2B00004C
:100710002DE9F05F894604464FF0000ADFF874B116
:10072000FB44C0F820A02046E1688847002874D028
:10073000252806D0D4E901219047206A401C206278
:10074000F1E700265F462046E168884720280546F5
:1007500007DB312D05D2781910F8200C08B10643BB
:10076000F1E7B00701D526F00406C4F81CA0002765
:10077000C4F818A02A2D09D0284602F039FD38B354
:1007800004EB8708303DC8F8185019E059F8041BED
:10079000204604EB87029161E1688847012F0546F6
:1007A00018D1E069002820DA26F020061DE0D8F8EC
:1007B000180000EB800005EB40003038C8F8180046
:1007C0002046E1688847054602F012FD0028EED178
:1007D000012F0AD02E2D08D12046E16888477F1CC2
:1007E0000546022F46F02006C4DBA069002803DA84
:1007F000404246F00106A061F00701D026F0100645
:100800006C2D0BD0682D09D04C2D39D06A2D35D0E8
:10081000742D35D07A2D33D016E038E0E1682F46BC
:1008200020468847B842054609D16C2F26D04FF4A0
:100830008060E168064320468847054604E06C2F47
:100840001AD04FF4807006430DB3A5F1410019286A
:1008500002D8203546F400664A46294620462660DE
:100860004E46FFF767FC80B101280BD0F61D26F03D
:10087000070000F1080956E74020E4E78020D8E7A8
:100880000020D6E706F104094DE7284652E7206A22
:10089000BDE8F09F6C2B000030B5B0F10A0271F199
:1008A00000034FEA900E4EEA817EB0EB0E0061EB42
:1008B00091014FEA101E4EEA017E10EB0E0041EB53
:1008C00011114FEA102E4EEA016E10EB0E0041EBB3
:1008D00011214FEA104E4EEA014E10EB0E0041EB93
:1008E0001141401841F100014FEAD00040EA417047
:1008F0004FEAD1014FEA810444EA907410EB80057D
:1009000044EB01046D1944EB0404521BA3414FF066
:10091000000348BF0A3200D530BD401C41F1000140
:1009200030BD2DE9F0470D4699469246044600F148
:1009300024080168880604D5E06921F010012160CF
:1009400000E00120A84201DD471B00E00027A1696B
:100950007A1902EB0900081AA0612078C00602D4B7
:100960002046FFF7E6FC002608E0D4E901211AF84A
:1009700006009047206A401C761C20624E45F4DB3E
:100980002078C0060AD52046FFF7D3FC06E0D4E95C
:10099000012130209047206A401C2062381EA7F1B8
:1009A0000107F4DC07E0D4E9012118F805009047BD
:1009B000206A401C2062281EA5F10105F3DC2046B8
:1009C000FFF7CDFC2078000602D50220BDE8F087B5
:1009D0000120FBE72DE9FF4F0C461E464FF0FF3785
:1009E0008BB0D2E90001DDF860800A908A46C1F33D
:1009F0000A5505B93D46002108464FF00000BAF1FE
:100A0000000F00F4400005DA00EB80004FF44001D5
:100A100001EA50004FEA9059B9F1010F00DDB946E3
:100A20000A9850EA4A000ED044F61050A5F2FF355D
:100A300045432F14B8F1000F1ED07542291E1EDD4C
:100A4000C9F100021CE0B8F1010F4FF0000001D025
:100A5000302103E0F24305E02154401CB042FBDBAF
:100A600030460022002121540B99C1F80880C1E9C9
:100A700000200FB0BDE8F08FBD1B6D1CDEE74A46BD
:100A800000DA694206A800F0F3FB06AB93E8070022
:100A900003AB83E8070050460A9901F0CDFF8DE8CB
:100AA0000700A0F500501F3800900398002D0ADDC4
:100AB00042F21F014A460844002303A903906846F6
:100AC00002F036FA09E0A0F500504A461F3800232C
:100AD00003A90390684602F040FA8DE8070000047D
:100AE000000C03D04FF0FF30410800E01046B8F191
:100AF000000F03D00022009215461EE0751E05D49B
:100B0000FFF7CAFE303262556D1EF9D5B346012299
:100B1000084302D000227F1C04E02078302801D155
:100B200000227F1E002A099784D01DE0112D07DACC
:100B3000FFF7B2FE303262556D1C50EA0102F5D16A
:100B4000084302D00098C8B10EE00021681E05E0FD
:100B5000235C625C63542254401E491C8142F7DBD3
:100B6000AB46A81B401E0990002004F80B000B9810
:100B7000099AC0F80880C0E9002B7AE711264FF0E7
:100B8000000857E72DE9F04F88460446D21D22F0B1
:100B9000070191B0D1E90001CDE90A0102F014FB8F
:100BA00002460B98C00F01D02D2007E02068810776
:100BB00001D52B2002E0202101EAC000032A099080
:100BC00001D0072A05DB03464146204600F010FB12
:100BD0000BE12078800601D5E06900E00620B8F13D
:100BE000650F814606D0B8F1660F18D0B8F1670FCF
:100BF00070D131E00020B9F1110F009001DB112319
:100C000001E009F101030AAA01A90CA8FFF7E2FE1D
:100C1000DDE90C70002609F10105834647E001205B
:100C20004B4600904FF000470AAA01A90CA8FFF715
:100C3000D1FEDDE90DB00C995D46002610B909F131
:100C400001000D18B9EB050003D4C0F1FF3609F11E
:100C50000105A5EB09002BE0B9F1010F01DA4FF016
:100C600001090020B9F1110F0090484601DD112360
:100C700000E003460AAA01A90CA8FFF7ABFEDDE9D4
:100C80000C704D4600268346207800070AD4AB45F9
:100C900000DA5D4601A8012D04DD411911F8011C9F
:100CA000302907D04F4502DA17F1040F04DA01208A
:100CB00082460FE06D1EEEE7002F02DCED1B3E4486
:100CC00003E0781CA84200DD7D1CB81B00F1010A7E
:100CD0004FF000472078000703D4AA4501DB4FF00E
:100CE000FF3A0021B7F1004F0DF143088DF8431092
:100CF00024D002202B23002F01DA7F422D230A214A
:100D0000021EA0F1010000DC5FB197FBF1FC97FB34
:100D1000F1F201FB1C7C17460CF1300C08F801CDF8
:100D2000EEE7A8F1010003702188090501D54521EE
:100D300000E06521A0F1010800F8011C09980FA945
:100D4000A1EB0807FF1D00B10120411901EBEA707A
:100D5000A1693844081A401EA0612078C00602D458
:100D60002046FFF7E6FA099828B1D4E90121904717
:100D7000206A401C20622078C00622D52046FFF75A
:100D8000D8FA1EE0002E04DBB34502DD01A8805D29
:100D900000E03020D4E901219047206A401C206205
:100DA000761CAAF101005FEA000A0AD100F01CFAE1
:100DB000C0680168405CD4E901219047206A401C6A
:100DC0002062281EA5F10105DCDC07E0D4E9012141
:100DD00018F8010B9047206A401C2062381EA7F1CA
:100DE0000107F3DC2046FFF7BAFA032011B041E611
:100DF0002DE9F04F04460D46D21D22F0070089B0C0
:100E0000D0E900974846394602F0DEF90246F80F6D
:100E100001D02D2307E02068810701D52B2302E0B4
:100E2000202101EAC0038DF820300BB1012000E041
:100E30000020032A824601D0072A04DB29462046E7
:100E400000F0D6F93FE12078800601D40D2500E0BE
:100E5000E569C7F30A560D2D49DA00214FEA175B01
:100E600008464FF00000002F00F4400007DA00EBC6
:100E700080004FF4400100EBD07001EA6000811562
:100E8000012901DD4FF0FF3100224FEA850CBCF152
:100E9000180F06D31346ACF118004FF08052C24031
:100EA00003E04FF4801323FA0CF30CF10C0CBCF1AB
:100EB000200F04D3ACF1200C09FA0CF001E007FA82
:100EC0000CF000294FF0004801DD18B90FE00ED1F9
:100ED00040450CD319EB02095F4121B9404502D1CD
:100EE0009F4329EA0209BBEB175F00D0761C2088DC
:100EF000000502D57B48784402E07A4878441938E6
:100F000008AA302302F80A30037C0AF10101002EFE
:100F10000AF1020A53546A4602DC4FF0300101E044
:100F20004FF031014FF001088DF8001002D0A6F209
:100F3000FF3603E059EA470100D06B4E002D02DC7A
:100F40002178090704D54FF002082E218DF80110F1
:100F5000C44600210BE0C7F303433F01C35C491CB7
:100F60006D1E02F80830052908F1010801DA002D8C
:100F7000F1DC00210CE000EB1973491C1B786D1E9D
:100F8000082902F808304FEA091908F1010801DAC6
:100F9000002DF0DC21688B0602D516E0A8F10108CF
:100FA000E04505DD02EB080313F8013C302BF5D0DA
:100FB000B8F1000F09DD02EB080313F8013C2E2BFA
:100FC00003D1090701D4A8F10108002D05DD3E2158
:100FD00002F808106D1E08F10108407C002E02F88E
:100FE000080008F1010804DA2D20764202F8080012
:100FF00002E02B2002F808000A214FF47A708642A2
:1010000008F101080BDB96FBF0F3303302F80830EF
:1010100096FBF0F308F1010800FB136601E0642E73
:101020000CDB642096FBF0F3303302F8083096FBBB
:10103000F0F308F1010800FB136601E00A2E06DB5D
:1010400096FBF1F0303002F8080008F1010896FB39
:10105000F1F001FB1060303002F80800A16908F1DE
:10106000010808EB050202EB0A00081AA0612078CB
:10107000C00602D42046FFF75CF9216A08AE01EBF6
:101080000A00206204E0D4E9012116F8010B904720
:10109000BAF1010AF7D22078C00602D52046FFF740
:1010A00048F96E4609E016F8010B3E280FD0D4E946
:1010B00001219047206A401C2062B8F10108F2D259
:1010C0002046FFF74CF909B00320BDE8F08F206AF5
:1010D0002844206203E0D4E90121302090476D1EAE
:1010E000EBD3F8E7BA23000002FCFFFF10B5436919
:1010F00013B1AFF3008001E0FFF754F9012010BDF8
:10110000127800F124010A7000224A700122EDE7F2
:1011100011684FF0FF32E9E710B5436913B1AFF33F
:10112000008001E0FFF7D6F9012010BD128800F120
:10113000240182840022C2840122EDE711684FF06D
:10114000FF32E9E72DE9F04116460C46054600F06E
:1011500043F8036893F80101012807D0FF2C12D847
:10116000185D80B101202C70BDE8F081D3F8070133
:101170003246214603F20713C7182846BC46BDE88D
:10118000F041002360474FF0FF30EDE7754600F077
:10119000EBF8AE4605006946534620F00700854649
:1011A00018B020B5FFF73EF8BDE820404FF000062C
:1011B0004FF000074FF000084FF0000BAC46ACE8D2
:1011C000C009ACE8C009ACE8C009ACE8C00921F02E
:1011D00007018D467047000010B500F005F8001DAE
:1011E00010BD00BF4920000000487047800000206B
:1011F0002DE9F0411F46044603260168072A01F441
:10120000006004DB08B116A505E016A503E008B1EF
:1012100015A500E015A521F010002060A069C01EF2
:10122000A0610FB1401EA0612046FFF782F84FB1C8
:10123000D4E9012138469047206A401C2062C01C36
:10124000206206E0206AFAE7D4E9012115F8010BD3
:101250009047761EF8D22046FFF781F8BDE8F0816E
:101260004E414E006E616E00494E4600696E66004A
:101270002DE9F047814616468AB0354878440DC8B6
:101280008DE80D0032487844801C03AC0DC884E81A
:101290000D0041F69B300844372190FBF1F290FBA2
:1012A000F1F5A5F1800501FB12041B3C02D5644257
:1012B000012000E00020DFF898A080460027FA44D3
:1012C000AAF1BE0A0EE0E0070AD03246684607EBF4
:1012D000470101230AEB810101F03FFE8DE8070081
:1012E00064107F1C002CEED1194F7F44AE3F19E0F3
:1012F000E80715D007EB04100DF1180A90E80E006E
:101300008AE80E00C068F04201D198190890324670
:10131000012306A903A801F020FE03AB83E8070020
:101320006D10641C002DE3D14FF001033246694675
:10133000B8F1000F03A802D001F0FAFD01E001F0BE
:101340000CFEC9E90001C9F808200AB0BDE8F08721
:10135000C420000010B50446AFF300802046BDE86D
:101360001040FEF74ABF00000048704760000020B0
:1013700001491820ABBEFEE72600020070470000BE
:1013800048F20001C4F208010A68002822F00102B4
:1013900018BF01320A60704748F2200CC4F2080CF2
:1013A000DCF80030002943EA800208BF23EA80020B
:1013B000CCF80020704700002DE9F04148F2000110
:1013C000C4F208010A680323CFF2FF1302EA030EF6
:1013D00003784278B0F802C0734404791A448589CE
:1013E0006244468A02EB0412C78A2A443244D0F887
:1013F00018803A444B68C789067D0F61078A23F439
:1014000000338F60806802EB486203EB46438862DA
:101410000A604B60BDE8F08148F20401C4F20801A3
:101420000A68002822F0010218BF01320A607047E2
:101430002DE9F04348F2040EC4F2080EDEF8002055
:101440000323CFF2FB131A4003784178B0F802C0AF
:101450001A4404791144C28985896144468A077D0A
:10146000B0F81680D0F8189001EB0411CEF81020D7
:101470002944028A314401EB8741CEF808204144D7
:10148000806801EB4961CEF82800CEF80010BDE875
:10149000F083000048F20000C4F20800002101605F
:1014A000416081600161826901628162C160416164
:1014B000C2694162C162704710B540F28C1CC2F231
:1014C000000C9CF8001048F21800C4F2080011F05B
:1014D000010208BF043001F1010240F2C0040068BB
:1014E000D3B240F2241EC2F20004C2F2000E08BFC2
:1014F00074466FF31F3001F0FE01282B8CF800209A
:10150000605238BF10BD00208CF8000040F28810F7
:10151000C2F200000121016010BD0000F0B5D0E969
:101520000231D0E904241944D0E900CE48F2000584
:101530001144C4F20805214480692E684FF6FF77F4
:101540006144C0F6006701EB0E713E4001EB405074
:1015500030442860F0BD00000021C0E90011C0E95E
:101560000211C0E904118161704700000021C182AD
:10157000816101600171C0E902110161017570476B
:101580000021C16001614160016081604161816150
:10159000C16170472DE9F04F86B04668D0F80890D9
:1015A000C2688B4605920169039141690491D0F8A4
:1015B00018A00090D0F81CE0BBF80070002F5ED09F
:1015C000012203234FF0011400254FF0000C08E026
:1015D00052009B0064000CF1010C7F0805F102052C
:1015E0004DD0F807F4D026EA02009BF8026029EA01
:1015F000030906FA0CF6304302909BF80800059E9A
:10160000A84040EA09019BF80A00964300FA0CF052
:101610003043CDF804E09BF803E0059003989BF875
:1016200004800CF1100620EA04090EFA06F040EAE4
:10163000090E08FA0CF040EA0E0003909BF8050032
:1016400089460499B0409BF8066021EA040E40EAFE
:101650000E0006FA0CF6304304909BF809002AEAC3
:101660000306A84040EA060A9BF80700019900FA21
:101670000CF021EA020640EA060E029EA8E7009856
:101680004660C0F808900599C1600399016104990A
:101690004161C0F818A0C0F81CE006B0BDE8F08FAA
:1016A0008821C4F240210860704700000422C4F27F
:1016B0000202936823F003031843906013688C20A0
:1016C00023F4706343EA0121C4F24020116050F812
:1016D000041C002908BF704701210160002101603E
:1016E0007047000081B00020C4F202000021009188
:1016F0000168009A01320092009A520A022A02D826
:1017000011F00201F4D00068C0F3400001B070474E
:1017100040F28811C4F24021086070470C21C4F2E5
:1017200002010A6822F0F00242EA001008607047E5
:101730000C21C4F202010A6822F4407210430860CE
:10174000704700000821C4F202010A68012822F053
:1017500003020A6003D0022818BF704703200A68FA
:10176000104308607047000081B00020C4F20200FE
:10177000002100910168009A01320092009A520AF9
:10178000022A02D811F00401F4D00068C0F38000EE
:1017900001B07047002940F21C01C4F202010A683E
:1017A0000CBF22EA00001043086070470C20C4F20E
:1017B0000200102101610021016040F8081C40F87E
:1017C000041C41608160C16041618161C16101624D
:1017D00001680268890742F20041C0F2F40103681F
:1017E0005CBF41F20021C0F27A0102F001025B0706
:1017F00021FA02F105D550F8082CC2F30322013278
:1018000051430268C2F3012252B1022A0DD0012ACB
:101810000ED10068C0F303100130B1FBF0F009E015
:1018200041F20020C0F27A0004E04FF4004001E0F1
:1018300049F6404040F20001C2F2000108607047E2
:101840000421C4F20201CA68037840781A4342F4C2
:101850008272CA600A6842EA001040F00100086023
:1018600051F8040CC007FBD070470000B0B540F23F
:101870003E24C2F200046078E588811E20294FF0E2
:10188000010000F25080DFE801F011204E4E4E4E74
:101890004E4E4E4E4E4E4E4E4E4E4E4E4E4E4E4E68
:1018A0004E4E4E4E4E4E4E4E25344D00022D37D1EB
:1018B00040F2102141F65D13C2F20001C0F60003B0
:1018C0000020022200F02AFE2DE00220022D08BF97
:1018D000012028E0072D23D140F2102141F65D13AD
:1018E000C2F20001C0F600030020072200F016FE3D
:1018F00019E0072D14D1A08840F21021C2F2000196
:1019000000F072F878B940F2102141F66D33C2F25E
:101910000001C0F600030020072200F0DFFD02E016
:10192000022000E00020002808BF002D00D0B0BD3C
:1019300094F90000B0F1FF3F07DD002000210022F4
:101940000023BDE8B04000F0C9BD00200021002206
:101950000023BDE8B04000F0E1BD000010B540F24A
:101960003E22C2F2000253780446022B05D0202BFF
:1019700005D1908800F0C0F802E0012000E00220CC
:10198000002818BF10BD204600210022002300F0CF
:10199000A5FD10BD01060FD0012000210023002B62
:1019A00008BF704741F66D33C0F600030020944530
:1019B00038BF624600F092BD000A01280AD0022812
:1019C000EAD140F20401002001234FF0430CC2F29F
:1019D0000001E4E740F24701002001234FF0120C20
:1019E000C2F20001DBE7000000281CBF02207047A4
:1019F00040F21820C2F2000005C8C1E90002002030
:101A00007047000040F23023C2F20003C3E9000136
:101A100000201881B2FA82F0400941020020598169
:101A20007047000080B50846114600F021F80028F4
:101A300040F23020C2F200001CBF4FF4007141811F
:101A4000418900291CBF002080BDD0E9001241F669
:101A50002523C0F600030320BDE8804000F05EBDF2
:101A600040F23021C2F20001002200200A817047BA
:101A70000020704710B500F0EFF80446A0B901202F
:101A80000521002200F062FA02200521002200F068
:101A90005DFA03200121002200F058FA40F23020C4
:101AA000C2F20000418909B1204610BDD0E9001200
:101AB00041F62523C0F600030320BDE8104000F0E6
:101AC0002DBD000080B540F2302CC2F2000CBCF8F5
:101AD00008300BB1184680BD0A4601464FF400702D
:101AE00041F66123ACF80800C0F60003012000F0C5
:101AF000F5FC0346184680BD00281CBF0220704735
:101B0000D1E9000140F21822C2F20002C2E900014C
:101B100000207047F0B581B002284FF0010608BFE1
:101B2000002920D140F26420D4B2C2F200002C215E
:101B300004FB010702257A7EC0F208050AB10122E2
:101B400005E0BA7E002A0CBF4FF400250122614354
:101B5000425400261F207E7000F028FE20462946B1
:101B60003E7600F0F1FD304601B0F0BD70B50446A0
:101B700040F26420C2F200002C2104FB0105614305
:101B80000122002642521F202E62C5E90166C5E9E6
:101B900003666A7600F00AFE0221C0F208012046C0
:101BA0002E7600F0D1FD002070BD0000B0B50C46CF
:101BB000FFF746FE00F092FD4FF4803000F0A6FDE6
:101BC000206800F0A3FDD4E90101084340F00100C2
:101BD00000F0AEFD40F26425C2F2000500240020B2
:101BE00005212C80C5E90144C5E903446C612C76CC
:101BF000C5E90744C5E9094400F0A6FD40F23E20CE
:101C0000C2F20000C5E9044041F6B140C0F6000050
:101C100068620120A87628801F20C5E9024400F0F0
:101C2000C5FD0221C0F2080100202C7600F08CFDD9
:101C300040F25421C2F2000100200C708C60B0BD53
:101C400080B50C2000F062FD40F25421C2F2000188
:101C5000022200200A7080BD40F25421C2F200012D
:101C6000032200200A70704770B502284FF001046B
:101C700008BF002901D0204670BD100616D040F2E2
:101C80006420C2F20000D5B22C2105FB0106694395
:101C900040F2051242521F2000F088FD0024284621
:101CA0000A21347600F050FD204670BD012070BD41
:101CB0002DE9F0470D46097801F06002402A35D041
:101CC000202A36D0002A38D14BB2824603F01F00BA
:101CD000032884BF0220BDE8F0876E78B5F806803F
:101CE0000C2E3CD86988AA884FF000090127DFE84C
:101CF00006F00726363A364A55B35C727F8AB3003F
:101D0000B3F1FF3F00F3868040F25421C2F200019C
:101D10000978042905D101287CD0022801D1032AA1
:101D200078D8022880F0E3800020E9E00120BDE8B7
:101D3000F087BDE8F047FFF799BD0227B4E040F215
:101D40005423C2F200031B78042B05D1012861D073
:101D5000022801D1032A5DD8FFF7DCFE23E04FF013
:101D60000009022778E040F25423C2F200031B78F6
:101D7000042B05D101284DD0022801D1032A49D8CE
:101D8000FFF772FF0FE040F25420C2F2000041F66C
:101D900029798160C0F6000900275DE008461146F8
:101DA0004246FFF7F7FD074654E040F25420C2F2E6
:101DB0000000007840F22C21043818BF0120C2F244
:101DC000000141F66D330870C0F600035046012251
:101DD00000F084FB3DE0B1B34F1E18BF012701297D
:101DE00038D140F25420C2F200000521017031E0E8
:101DF00040F25420C2F2000000784FF0000904289D
:101E00000CD1012728E040F25420C2F200000078F3
:101E1000042813D14FF0000901271DE040F22C21C6
:101E200041F66D33C2F20001C0F6000350460122B4
:101E300081F8009000F052FB00270DE052EA010704
:101E400018BF012706E040F25420C2F2000004212E
:101E5000017000274FF0000957EA080024D195F9D6
:101E60000000B0F1FF3F22DD40F26424C2F2000422
:101E70002C200AFB00410AFB00F5887E0027402247
:101E8000C1E90177C1E90372C1F81C9000284FF045
:101E9000020150464FF0020608BF012100F060FB2E
:101EA00038466655BDE8F0873846BDE8F08740F211
:101EB0006420C2F200002C210AFB01040AFB01F19C
:101EC0000122002742521F20C4E90177C4E90377A9
:101ED000C4F82090627600F069FC0221C0F208018B
:101EE0005046277600F030FC3846BDE8F0870CD12C
:101EF00040F26420C2F200002C2102FB0100407875
:101F000040F22C21C2F20001087040F22C2141F66F
:101F10006D33C2F200010027C0F6000350460222D2
:101F20004F7000F0DBFA95E710B540F25424C2F28E
:101F30000004A06800F0F6FBA068042100284FF020
:101F4000000008BF0321217010BD000010B540F251
:101F5000642CC2F2000C4FF02C0E00FB0EC300FBF1
:101F60000EFE0024C3E90144C3E903445C61C3E9F4
:101F70000744C3E909422CF80E401C7600F0E4FB4C
:101F8000002010BD2DE9F04F8FB00D46044600F043
:101F90003DFB0790204600F041FB00F00306204681
:101FA00000F01CFB40F26421C2F200012C2204FB71
:101FB000021AE90706901CBF01208AF8180006984B
:101FC0000AF1140900F002070AF101000C900AF16D
:101FD000190004900AF11A000A900AF118000E90F4
:101FE0000AF1240002900AF12000019007980AF1FA
:101FF000040800F0400100F00F0003910AF11C01F9
:1020000008900AF1280000254FF0000B0091059080
:102010000B9709960FE09AF800000B9F002800F03C
:102020008A814FF0000B00BFBBF1000F4FF0010B96
:10203000284600F04E829AF800000528F4D8DFE820
:1020400010F0480206001F003D007500A900002F97
:10205000EAD10E9800780028E6D0002E00F0CC815E
:10206000022E40F0D28104990878002800F0C38144
:1020700003208AF80000002008704FF0010BD3E71E
:10208000002F40F0A2800E980078002800F09D807C
:10209000012E40F09A800398002800F09680D8F82E
:1020A0000C10D8E9012008449042C8F8080080F0DC
:1020B00021812046012100F053FAB5E7002FB3D16A
:1020C0000E9800780028AFD020460D9500F096FAC3
:1020D000054688B16F424FF0FF3600BF204600F042
:1020E00085FAD8F80010D8F8082011443144013698
:1020F000BA1901324870F1D12046012100F032FBBB
:10210000D8E9011042198A42C8F8082080F0D1802D
:102110001F2000F04BFB0E984FF0000B80F800B032
:102120002046022100F010FB099EBFE00E980078C7
:1021300000283FF476AF204600F060FA082864D10A
:10214000002500BF204600F051FAD9F8001048558C
:102150000135082DF6D12046012100F003FB02983D
:10216000D9F800100268204690470546002800F084
:10217000DD800A984FF0000B00783E4600282F467D
:1021800000F01B810C980021017005200A258AF8B7
:10219000000013E1002F7FF447AF0C98007801286E
:1021A00046D1002C3FF440AF0C980121017005206E
:1021B0008AF800001F2000F0F9FA0E980021017043
:1021C00020460A2100F0C0FA2EE7089800283FF4C4
:1021D0002BAF0598076800208AF800002FB10799F7
:1021E000069B20463246B84705466DB30A980B9FBA
:1021F00000780D95002800F0B6800C980026067037
:1022000005200A258AF80000AFE02046012100F0F1
:10221000A9FA0A984FF0000B0078002800F0968089
:102220000C980021017005200A258AF800008EE034
:102230000498374600780D95002800F0A28002250A
:102240000120C0F20805A7E09AF800000B9F0028C3
:102250007FF4EAAE02208AF80000204601210D95A5
:10226000374600F08FFAD8F80C20D8E90110024464
:102270008A4238BF114688420DD24D42461E00BFE9
:10228000D8F8000030444178204600F073FA013657
:10229000A8190130F4D11F2000F088FA0E9800210F
:1022A00001702046022100F04FFA3E460B9F0D9D23
:1022B000BAE601980D9D036800208AF8000023B15A
:1022C000D8F80010204698470546099E002D3FF497
:1022D000A2AE0A980B9F00784FF0000B00280D95D6
:1022E00000F0AD800C980021017005200A258AF8C5
:1022F0000000A5E00098036800208AF8000023B1E0
:10230000D8F80010204698470546002D64D00A985A
:10231000374600780D95002800F0BD800C98002607
:10232000067005208AF800000A253AE09AF80000B5
:1023300004287FF476AE04982F460078002800F039
:102340008B8002250120C0F2080590E000251F20A7
:1023500000F02CFA0E98294680F800B0204600F0D4
:10236000F3F9012560E6002500261F2000F01EFA83
:102370000E9829460670204600F0E6F9099E0D9D4C
:1023800052E60A9802250078C0F20805002818BF16
:10239000012008BF4FF400258AF800000C980026A1
:1023A00006701F2000F002FA0E982946067020469B
:1023B00000F0CAF90D9D3E466BE000251F2000F09D
:1023C000F5F90E98294680F800B0204600F0BCF9D7
:1023D0003D463746099E27E69AF8000000287FF41C
:1023E00023AE04982F460078002857D002250120FC
:1023F000C0F208055DE046B90A98007828B10420CB
:102400008AF800004FF0010B0EE60A983746007874
:1024100038B10C980026067005200A258AF80000BD
:1024200001E0002500261F2000F0C0F90E98294683
:102430000670204600F088F901253E4629E0002577
:102440001F2000F0B3F90E98294680F800B020460E
:1024500000F07AF90D9DE7E50A9802250078C0F2B0
:102460000805002818BF012008BF4FF400258AF88E
:1024700000000C984FF0000B80F800B01F2000F017
:1024800095F90E98294680F800B0204600F05CF9D6
:102490003D460B9FC8E50025002682E70A980225E5
:1024A0000078C0F20805002818BF012008BF4FF4CB
:1024B00000258AF800000C98002606701F2000F006
:1024C00075F90E9829460670204600F03DF9099EE0
:1024D000DEE780B20FB0BDE8F08F00002DE9F041DB
:1024E00040F26428C2F200082C2400FB04854FF05F
:1024F000400CAE7E05F1040E00278EE88610022106
:102500004443EB610225002E08BF012100F028F8AA
:10251000002008F80450BDE8F081000070B540F2DA
:10252000642C0446C2F2000C2C2004FB00C560435E
:1025300005F1040E00268EE8460001212CF800105B
:102540001F202E612B62697600F030F90221C0F263
:10255000080120462E7600F0F7F8002070BD00003C
:102560002DE9F0410D460121044600F00BF9022D42
:1025700005D0012D07D1204600F0BEF803E020462B
:10258000042100F0E1F840F26420C2F200002C21A6
:1025900004FB0108D8F81020D8E9021002448A424E
:1025A00038BF114688420DD208F104064F42451E3D
:1025B000306828444178204600F0DCF8013578196D
:1025C0000130F5D11F2000F0F1F800222046022151
:1025D00088F81820BDE8F04100F0B6B840F20011CC
:1025E0000001C4F2010108587047000040F2801158
:1025F000C001C4F2010108587047000040F28C117C
:10260000C001C4F2010108587047000040F20411F3
:102610000001C4F2010108587047000040F208119F
:102620000001C4F2010108587047000040F2481050
:10263000C4F2010000687047F0B581B04EF2001599
:10264000CEF20005042040F26026C5F88000C2F2F8
:102650000006306808B101B0F0BD01203060FFF71E
:10266000E5FF044640070AD540F25420C2F20000BC
:102670000321017000218160002000F053F8002741
:10268000F8B22146FFF77EFC0137042FF8D124F081
:10269000010000F08BF8002030600420286001B0B9
:1026A000F0BD000083B010B581B040F24C348446D8
:1026B00003A8C2F200040EC003AA2046614600929D
:1026C000FDF7C2FD2046FDF7D1FD01462046FFF78C
:1026D000F9F901B0BDE8104003B0704740F2803016
:1026E000C4F20100016841F002010160016821F0BB
:1026F000020101607047000040F200110001C4F2C5
:1027000001010A5882F004020A50704740F28031F9
:10271000C4F201010A6883B21A4322EA1040086039
:102720007047000040F25011C4F201010860704788
:1027300040F24011C4F201010A6883B21A4322EA4E
:10274000104008607047000040F2001C0001C4F215
:10275000010C5CF800308AB21A4322EA11414CF8AD
:102760000010704740F29012C001C4F201021150F3
:102770007047000040F2C012C001C4F201021150C3
:102780007047000040F2D012C001C4F201021150A3
:102790007047000040F24C11C4F201010A6883B294
:1027A0001A4322EA104008607047000040F24811C6
:1027B000C4F201010860704798B040F21820C2F2DC
:1027C00000004FF4E131016000270821878081710A
:1027D00010204EF2001A40F20009C0F2020001215E
:1027E000CEF2000AC4F20C090124FEF7D3FF4FF029
:1027F000C0700121FEF7CEFF4EF6085040F20051A6
:10280000CEF20000C0F2FA5141604FF00061016069
:102810004FF0FF30CAF88001CAF880004FF4003052
:10282000CAF800004846FEF7ABFE40F22025C2F28F
:1028300000050320288048462946AF70AF72FEF796
:10284000A9FEFEF727FE40F21436C2F2000630461B
:10285000FEF782FE3046FEF761FE40F23036C2F2ED
:1028600000063046FEF782FE4FF4006030604FF401
:10287000A040F0820F20B06130463771B46077829B
:102880003775FEF799FD0220B06030463471FEF7CF
:10289000CFFD04200121FEF77FFD0120FEF770FD32
:1028A0000120FEF7B9FD40F28D10C2F200000121B7
:1028B0000122FFF7A7F80120FEF744FFFEF754FFBF
:1028C000012840F0958002200721FEF7EFFE01204D
:1028D0004FF00108FEF7E4FEFEF704FF012840F088
:1028E00089800020FEF71AFF0120FEF711FF4FF448
:1028F0008070FEF71DFF042001210424FEF74AFF2B
:1029000040F23C20C2F2000040F20351018040F24C
:102910004821C2F2000110222023C1E900238A606D
:10292000FFF744F91F20FFF735FFFFF789F9CAF8D1
:102930000040FFF79FF84FF400000121FEF72AFF47
:1029400040F20310A5F80900A9F5004029462C80A3
:1029500085F80280FEF71EFE40F2881140F2C007A3
:10296000C2F20001C2F2000708680028FCD03888D3
:10297000FA8B179078883B8C1690B888B7F822C0ED
:102980001590F888B7F824E0139038897C8B129062
:10299000F889B98B1190B88ACDE90A411490F88C66
:1029A00001A910900CA880E80C5013987D89009024
:1029B0001298BE8961C1119804A9B7F810A0B7F8A0
:1029C00012B0B7F81680B7F8189081E8010CDDE96D
:1029D0001621DDE9146308A0CDE908890796FFF701
:1029E00061FE40F28811C2F2000100200860BBE7DE
:1029F000FEE700BFFEE700BF25640A25640A2564E0
:102A00000A25640A25640A25640A25640A25640ADD
:102A100025640A25640A25640A25640A25640A25B2
:102A2000640A25640A25640A25640A25640A256463
:102A30000A25640A000000005FEA400C08BF91F01C
:102A4000000F4FEA8C234FEAC12243EA51514FEA6B
:102A50001C5018BF00F5F0404FEA300018BF41F09D
:102A600000415FEA6C5C00F02980BCF1FF3F08BFC9
:102A700040F080407047130C06BF12044FF0100C5A
:102A80004FF0000C130E04BF12020CF1080C130FD0
:102A900004BF12010CF1040C930F04BF92000CF15F
:102AA000020CD30F04BF52000CF1010C11464FF081
:102AB0000002A0F11F00A0EB0C00704711F0004FC6
:102AC00008BF704731F000413FF4D5AF0B0C06BF93
:102AD00009044FF0100C4FF0000C0B0E04BF09025C
:102AE0000CF1080C0B0F04BF09010CF1040C8B0F47
:102AF00004BF89000CF1020CCB0F04BF49000CF19C
:102B0000010CCCF1200322FA03F341EA030102FA9B
:102B10000CF2A0EB0C0000F10100704723F07F479E
:102B200020F07F4C80EA030000F00040ACEB07038C
:102B300003F57C5303F1FF032DE9804909B44FEA03
:102B4000144324EA03484FEA154B25EA0B4E0FF2D3
:102B5000042606EB13273E7803FB0667C7F500073C
:102B600007FB06F64FEAD64606F102064FEA54374F
:102B700007FB066CCCF1005C4FEA1C472CEA074CC3
:102B80000CFB06F507FB06F404EB15464FEA961618
:102B900049085FEA320234BF00204FF000404FEA9C
:102BA000D13706FB07FC4FEA1C4C0CFB0BF7D21B82
:102BB00003FB0CF761EB07010CFB0EF7B0EB0740D2
:102BC00072EB17420CFB08F734BFA2EB0742B2EBE3
:102BD000074261EB17414FEA0C444FEA910706FBAD
:102BE00007FC4FEA1C4C0CFB0BF7B0EBC74072EB39
:102BF000573203FB0CF734BFA2EBC742B2EBC7421C
:102C000061EB57310CFB0EF7B0EBC70072EB57725C
:102C10000CFB08F734BFA2EBC702B2EBC70261EBB3
:102C200057714FEA816141EA92114FEA826242EAAA
:102C300090124FEA806004EBCC04039F4FEAD13737
:102C400006FB07FC4FEA1C4C0CFB0BF7D21B03FBEB
:102C50000CF761EB07010CFB0EF7B0EB074072EBD2
:102C600017420CFB08F734BFA2EB0742B2EB074256
:102C700061EB17414FEA8C5504EB9C244FEA910716
:102C800006FB07FC4FEA1C4C0CFB0BF7B0EBC740F4
:102C900072EB573203FB0CF734BFA2EBC742B2EB27
:102CA000C74261EB57310CFB0EF7B0EBC70072EB7C
:102CB00057720CFB08F734BFA2EBC702B2EBC70296
:102CC00061EB57714FEA816141EA92114FEA8262EA
:102CD00042EA90124FEA806015EB4C2544F1000463
:102CE0004FEAD13706FB07FC4FEA1C4C0CFB0BF7F5
:102CF000D21B03FB0CF761EB07010CFB0EF7B0EBEB
:102D0000074072EB17420CFB08F734BFA2EB0742F7
:102D1000B2EB074261EB17414FEA813141EA924140
:102D20004FEA823242EA90424FEA80304FEA0C7614
:102D300015EB1C1544F1000448EA03434EEA0B4826
:102D40004FF0000EB2EB080C71EB030724BF624694
:102D500039464EEB0E0E4FF0000B00185241494120
:102D60004BEB0B0BB2EB080C71EB03077BF1000B89
:102D700024BF624639464EEB0E0E4FF0000B001892
:102D8000524149414BEB0B0BB2EB080C71EB0307C3
:102D90007BF1000B24BF624639464EEB0E0E51EA22
:102DA000020718BF46F0010616EB0E7655F1000239
:102DB00054F1000103D5BDE88901BDE80088BDE8F4
:102DC0008901BDE80048B619524141EB0101A3F168
:102DD0000103704780807F7E7D7C7B7A797877766F
:102DE00076757473727171706F6E6E6D6C6C6B6AE8
:102DF0006A69686867666665646463636261616086
:102E0000605F5F5E5E5D5D5C5C5B5B5A5A59595802
:102E1000585757565655555554545353525252516C
:102E2000515050504F4F4F4E4E4D4D4D4C4C4C4BC2
:102E30004B4B4A4A4A494949484848474747474609
:102E40004646454545444444444343434342424245
:102E5000424141419C46002B30D477002BD04FEAB1
:102E600037071CB503B44FF010004FF01001BAF152
:102E7000000F06D0BCF1000FDCBF40F0080040F0AE
:102E800008014FF000000FBCBDE810400BF1010B32
:102E9000BBF1010F08BF5FEA170722BF12F1010261
:102EA00011F101014FF0004143F1000300F0004037
:102EB00043EA00007047F9D35708D0E746EA0646D0
:102EC0004FEA164613F1400F1FDD13F1200FDFBF4D
:102ED00016430A46002120335B42BED0C3F12007CF
:102EE00046EA06464FEA164602FA07F746EA07069A
:102EF00022FA03F2C3F1200701FA07F742EA0702B8
:102F000021FA03F14FF00003A7E746EA020646EA7A
:102F100006464FEA164646EA0106BCBF46EA0646A2
:102F2000360C4FF000034FF000024FF0000194E721
:102F30002DE9804C70B49A46934691E8380007C852
:102F400031EA400C48BF34EA430C03D5FFF7E6FDF5
:102F5000FFF780FFF0BCBDE8008C2DE9804C70B419
:102F60009A46934691E8380007C810F0804F08BF92
:102F700013F0804F03D100F005F8FFF76BFFF0BCB2
:102F8000BDE8008C20F07F4723F07F4C80EA0300EF
:102F900000F0004007EB0C03A3F57C53A3F1FE0304
:102FA00092F0000F00F0B38095F0000F00F07780F2
:102FB0002DE901494FEA114021EA00484FEA144641
:102FC00024EA064700FB06FC08FB06F607FB08F8A8
:102FD00018EB06484CEB164C00FB07F718EB0748BC
:102FE0004CEB17404FEA124B22EA0B4E4FEA1546C4
:102FF00025EA06470BFB06FC0EFB06F607FB0EFE5A
:103000001EEB064E4CEB164C0BFB07F71EEB074E68
:103010004CEB174B18EB0B0840F1000018EB0E0BB4
:1030200058EB000840F100008F1A4FF000014FF0FC
:1030300000063CBFC943661B14BFB5EB040C00215E
:103040003CBFC943F61B4FEA174427EA04454FEA41
:103050001C472CEA074C04FB076205FB07F70CFB37
:1030600005F616EB074642EB174204FB0CFC16EB89
:103070000C4642EB1C421BEB060658EB0202414198
:103080004EEA8E0E46EA9E0601D5BDE80189B619C4
:10309000524141EB0101A3F10103BDE801894FEA6F
:1030A000144524EA05464FEA114721EA074C05FB7F
:1030B00007F406FB07F70CFB06F111EB074144EBA5
:1030C000174405FB0CFC11EB0C4144EB1C444FEA8C
:1030D000124722EA074C05FB07F206FB07F70CFB39
:1030E00006F616EB074642EB174205FB0CFC16EB07
:1030F0000C4642EB1C456A1854F1000148BF70476A
:10310000B619524141EB0101A3F10103704795F05B
:10311000000F37D04FEA114221EA02464FEA144726
:1031200024EA074C02FB07F106FB07F70CFB06F449
:1031300014EB074441EB174102FB0CFC14EB0C446D
:1031400041EB1C414FEA154725EA074C02FB07F506
:1031500006FB07F70CFB06F616EB074645EB174593
:1031600002FB0CFC16EB0C4645EB1C42121951F10C
:10317000000148BF7047B619524141EB0101A3F16C
:10318000010370474FEA144524EA05464FEA114708
:1031900021EA074C05FB07F106FB07F70CFB06F2DB
:1031A00012EB074241EB174105FB0CFC12EB0C4202
:1031B00051EB1C414FF0000648BF7047921841EB9D
:1031C0000101A3F101037047490050EAC12018BF73
:1031D00004204A0D18BF40F0010040F2FF72B2EB2C
:1031E000515F08BF40F00200012808BF052070476A
:1031F00030380A2801D201207047002070470000B3
:1032000010B500290AD00878002807D0054878446E
:10321000FDF74CF8002801D0002010BD024878448A
:1032200010BD00006E0100006601000010B500290D
:103230000AD00878002807D005487844FDF736F80A
:10324000002801D0002010BD0248784410BD0000C5
:103250005E01000056010000FDF794BCFDF7C8BDFB
:1032600000000000000000003031323334353637C2
:1032700038394142434445464030580030313233BA
:1032800034353637383961626364656640307800BA
:10329000040000080000000000000002000100001F
:1032A0001030313233343536373839616263646512
:1032B0006678700030313233343536373839414230
:1032C000434445465850000002400000000000A062
:1032D0000000000005400000000000C800000000E1
:1032E0000C4000000000409C00000000194000005D
:1032F0000020BCBE0000000034400000BFC91B8E8F
:1033000000000004B5400000504BCFD06607E2CF6C
:10331000010000006C4100003E8251AADFEEA7349C
:1033200001000000D9420000DCB5A0E23A301F974E
:10333000FFFFFFFFB4450000FD25A0C8E9A3C14F72
:10334000FFFFFFFFFF3F00000000008000000000C3
:10335000FF3F00000000008000000000A8340008CB
:10336000000000205C000000FC000008043500089C
:103370006000002050630000180100081C000000DD
:1033800043000000F8FFFFFF0C0000000E000000EB
:103390000F0000002E00000010010000430000009C
:1033A000F8FFFFFF00404040404040404040414166
:1033B000414141404040404040404040404040400A
:1033C00040404040400502020202020202020202A4
:1033D00002020202022020202020202020202002A1
:1033E0000202020202029090909090901010101031
:1033F00010101010101010101010101010101010CD
:103400000202020202028888888888880808080860
:10341000080808080808080808080808080808082C
:103420000202020240000000000000000000000054
:10343000000000000000000000000000000000008C
:10344000000000000000000000000000000000007C
:10345000000000000000000000000000000000006C
:10346000000000000000000000000000000000005C
:10347000000000000000000000000000000000004C
:10348000000000000000000000000000000000003C
:10349000000000000000000000000000000000002C
:1034A000000000000000000000127A000902430042
:1034B000020100803209040000010202010005241B
:1034C0000010010524010001042402060524060061
:1034D000010705820340000209040100020A0000FE
:1034E00000070581024000000705030240000012AA
:1034F00001100102000040830425F10000000000DB
:0435000001000000C6
:0400000508000209E4
:00000001FF
